{
  "contractName": "TodoList",
  "abi": [
    {
      "inputs": [],
      "name": "createTask",
      "outputs": [],
      "stateMutability": "nonpayable",
      "type": "function"
    }
  ],
  "bytecode": "0x60806040525f8055348015610012575f80fd5b5060f68061001f5f395ff3fe6080604052348015600e575f80fd5b50600436106026575f3560e01c8063a747649314602a575b5f80fd5b60306032565b005b5f80815480929190604190607e565b9190505550565b7f4e487b71000000000000000000000000000000000000000000000000000000005f52601160045260245ffd5b5f819050919050565b5f6086826075565b91507fffffffffffffffffffffffffffffffffffffffffffffffffffffffffffffffff820360b55760b46048565b5b60018201905091905056fea264697066735822122037e13646dd3b14f1ac2b0bdaba0ebc294a3fa9a8fded46845e1adf381dda365064736f6c63430008150033",
  "immutableReferences": {},
  "source": "//SPDX-License-Identifier: UNLICENSED\r\npragma solidity ^0.8.18;\r\n\r\ncontract TodoList {\r\n    uint taskCount = 0;\r\n\r\n    //make a function\r\n    function createTask() public {\r\n        taskCount++;\r\n    }\r\n}\r\n",
  "sourcePath": "D:\\BIBEK\\Web3.0\\To-Do\\To-Do-Chain\\contracts\\ToDoList.sol",
  "compiler": {
    "name": "solc",
    "version": "0.8.21+commit.d9974bed.Emscripten.clang"
  },
  "schemaVersion": "3.4.16",
  "updatedAt": "2023-09-24T03:31:11.597Z",
  "devdoc": {
    "kind": "dev",
    "methods": {},
    "version": 1
  },
  "userdoc": {
    "kind": "user",
    "methods": {},
    "version": 1
  }
}