{
  "contractName": "TodoList",
  "abi": [
    {
      "inputs": [],
      "name": "createTask",
      "outputs": [],
      "stateMutability": "nonpayable",
      "type": "function"
    }
  ],
  "bytecode": "0x608060405260008055348015601357600080fd5b5060a5806100226000396000f3fe6080604052348015600f57600080fd5b506004361060285760003560e01c8063a747649314602d575b600080fd5b60336035565b005b6000805490806042836049565b9190505550565b6000600019821415606857634e487b7160e01b81526011600452602481fd5b506001019056fea2646970667358221220dd726ad6d5d8b7202bee3fcdd2465901aae2eb571629d88c7a1df3f71166602264736f6c63430008000033",
  "immutableReferences": {},
  "source": "//SPDX-License-Identifier: UNLICENSED\r\npragma solidity ^0.8.0;\r\n\r\ncontract TodoList {\r\n    uint taskCount = 0;\r\n\r\n    //make a function\r\n    function createTask() public {\r\n        taskCount++;\r\n    }\r\n}\r\n",
  "sourcePath": "D:\\BIBEK\\Web3.0\\To-Do\\To-Do-Chain\\contracts\\ToDoList.sol",
  "compiler": {
    "name": "solc",
    "version": "0.8.0+commit.c7dfd78e.Emscripten.clang"
  },
  "schemaVersion": "3.4.16",
  "updatedAt": "2023-09-24T03:49:44.891Z",
  "devdoc": {
    "kind": "dev",
    "methods": {},
    "version": 1
  },
  "userdoc": {
    "kind": "user",
    "methods": {},
    "version": 1
  }
}